{
  "contractName": "EcommercePlatform",
  "abi": [
    {
      "inputs": [],
      "name": "proposalCounter",
      "outputs": [
        {
          "internalType": "uint256",
          "name": "",
          "type": "uint256"
        }
      ],
      "stateMutability": "view",
      "type": "function",
      "constant": true
    },
    {
      "inputs": [
        {
          "internalType": "uint256",
          "name": "",
          "type": "uint256"
        }
      ],
      "name": "proposals",
      "outputs": [
        {
          "internalType": "uint256",
          "name": "productId",
          "type": "uint256"
        },
        {
          "internalType": "string",
          "name": "merchantWallet",
          "type": "string"
        },
        {
          "internalType": "uint256",
          "name": "price",
          "type": "uint256"
        },
        {
          "internalType": "uint256",
          "name": "timestamp",
          "type": "uint256"
        },
        {
          "internalType": "bool",
          "name": "merchantSigned",
          "type": "bool"
        },
        {
          "internalType": "string",
          "name": "merchantSignature",
          "type": "string"
        },
        {
          "internalType": "bool",
          "name": "platformSigned",
          "type": "bool"
        },
        {
          "internalType": "string",
          "name": "platformSignature",
          "type": "string"
        },
        {
          "internalType": "bool",
          "name": "deliveryConfirmed",
          "type": "bool"
        },
        {
          "internalType": "bool",
          "name": "processCompleted",
          "type": "bool"
        }
      ],
      "stateMutability": "view",
      "type": "function",
      "constant": true
    },
    {
      "inputs": [
        {
          "internalType": "uint256",
          "name": "_productId",
          "type": "uint256"
        },
        {
          "internalType": "string",
          "name": "_merchantWallet",
          "type": "string"
        },
        {
          "internalType": "uint256",
          "name": "_price",
          "type": "uint256"
        }
      ],
      "name": "uploadTransactionProposal",
      "outputs": [],
      "stateMutability": "nonpayable",
      "type": "function"
    },
    {
      "inputs": [
        {
          "internalType": "uint256",
          "name": "_proposalId",
          "type": "uint256"
        },
        {
          "internalType": "string",
          "name": "_signature",
          "type": "string"
        }
      ],
      "name": "signProposalByMerchant",
      "outputs": [],
      "stateMutability": "nonpayable",
      "type": "function"
    },
    {
      "inputs": [
        {
          "internalType": "uint256",
          "name": "_proposalId",
          "type": "uint256"
        },
        {
          "internalType": "string",
          "name": "_signature",
          "type": "string"
        }
      ],
      "name": "signProposalByPlatform",
      "outputs": [],
      "stateMutability": "nonpayable",
      "type": "function"
    },
    {
      "inputs": [
        {
          "internalType": "uint256",
          "name": "_proposalId",
          "type": "uint256"
        }
      ],
      "name": "confirmDelivery",
      "outputs": [],
      "stateMutability": "nonpayable",
      "type": "function"
    },
    {
      "inputs": [
        {
          "internalType": "uint256",
          "name": "_proposalId",
          "type": "uint256"
        }
      ],
      "name": "completeProcess",
      "outputs": [],
      "stateMutability": "nonpayable",
      "type": "function"
    }
  ],
  "bytecode": "0x608060405234801561001057600080fd5b50610bbf806100206000396000f3fe608060405234801561001057600080fd5b506004361061009a576000357c0100000000000000000000000000000000000000000000000000000000900480632214ecda116100785780632214ecda1461011257806360ce51ff1461012e578063624871f91461014a578063fd84cb97146101665761009a565b8063013cf08b1461009f5780630529c4e3146100d85780630c0512e9146100f4575b600080fd5b6100b960048036038101906100b4919061077d565b610182565b6040516100cf9a999897969594939291906108d3565b60405180910390f35b6100f260048036038101906100ed91906107a6565b6103a2565b005b6100fc6103fe565b60405161010991906108b8565b60405180910390f35b61012c600480360381019061012791906107a6565b610404565b005b610148600480360381019061014391906107fa565b610460565b005b610164600480360381019061015f919061077d565b6105fb565b005b610180600480360381019061017b919061077d565b61062c565b005b60006020528060005260406000206000915090508060000154908060010180546101ab90610a59565b80601f01602080910402602001604051908101604052809291908181526020018280546101d790610a59565b80156102245780601f106101f957610100808354040283529160200191610224565b820191906000526020600020905b81548152906001019060200180831161020757829003601f168201915b5050505050908060020154908060030154908060040160009054906101000a900460ff169080600501805461025890610a59565b80601f016020809104026020016040519081016040528092919081815260200182805461028490610a59565b80156102d15780601f106102a6576101008083540402835291602001916102d1565b820191906000526020600020905b8154815290600101906020018083116102b457829003601f168201915b5050505050908060060160009054906101000a900460ff16908060070180546102f990610a59565b80601f016020809104026020016040519081016040528092919081815260200182805461032590610a59565b80156103725780601f1061034757610100808354040283529160200191610372565b820191906000526020600020905b81548152906001019060200180831161035557829003601f168201915b5050505050908060080160009054906101000a900460ff16908060080160019054906101000a900460ff1690508a565b600160008084815260200190815260200160002060040160006101000a81548160ff0219169083151502179055508060008084815260200190815260200160002060050190805190602001906103f992919061065d565b505050565b60015481565b600160008084815260200190815260200160002060060160006101000a81548160ff02191690831515021790555080600080848152602001908152602001600020600701908051906020019061045b92919061065d565b505050565b60405180610140016040528084815260200183815260200182815260200142815260200160001515815260200160405180602001604052806000815250815260200160001515815260200160405180602001604052806000815250815260200160001515815260200160001515815250600080600154815260200190815260200160002060008201518160000155602082015181600101908051906020019061050a92919061065d565b50604082015181600201556060820151816003015560808201518160040160006101000a81548160ff02191690831515021790555060a082015181600501908051906020019061055b92919061065d565b5060c08201518160060160006101000a81548160ff02191690831515021790555060e082015181600701908051906020019061059892919061065d565b506101008201518160080160006101000a81548160ff0219169083151502179055506101208201518160080160016101000a81548160ff021916908315150217905550905050600160008154809291906105f190610a8b565b9190505550505050565b600160008083815260200190815260200160002060080160016101000a81548160ff02191690831515021790555050565b600160008083815260200190815260200160002060080160006101000a81548160ff02191690831515021790555050565b82805461066990610a59565b90600052602060002090601f01602090048101928261068b57600085556106d2565b82601f106106a457805160ff19168380011785556106d2565b828001600101855582156106d2579182015b828111156106d15782518255916020019190600101906106b6565b5b5090506106df91906106e3565b5090565b5b808211156106fc5760008160009055506001016106e4565b5090565b600061071361070e846109b5565b610984565b90508281526020810184848401111561072b57600080fd5b610736848285610a17565b509392505050565b600082601f83011261074f57600080fd5b813561075f848260208601610700565b91505092915050565b60008135905061077781610b72565b92915050565b60006020828403121561078f57600080fd5b600061079d84828501610768565b91505092915050565b600080604083850312156107b957600080fd5b60006107c785828601610768565b925050602083013567ffffffffffffffff8111156107e457600080fd5b6107f08582860161073e565b9150509250929050565b60008060006060848603121561080f57600080fd5b600061081d86828701610768565b935050602084013567ffffffffffffffff81111561083a57600080fd5b6108468682870161073e565b925050604061085786828701610768565b9150509250925092565b61086a81610a01565b82525050565b600061087b826109e5565b61088581856109f0565b9350610895818560208601610a26565b61089e81610b61565b840191505092915050565b6108b281610a0d565b82525050565b60006020820190506108cd60008301846108a9565b92915050565b6000610140820190506108e9600083018d6108a9565b81810360208301526108fb818c610870565b905061090a604083018b6108a9565b610917606083018a6108a9565b6109246080830189610861565b81810360a08301526109368188610870565b905061094560c0830187610861565b81810360e08301526109578186610870565b9050610967610100830185610861565b610975610120830184610861565b9b9a5050505050505050505050565b6000604051905081810181811067ffffffffffffffff821117156109ab576109aa610b32565b5b8060405250919050565b600067ffffffffffffffff8211156109d0576109cf610b32565b5b601f19601f8301169050602081019050919050565b600081519050919050565b600082825260208201905092915050565b60008115159050919050565b6000819050919050565b82818337600083830152505050565b60005b83811015610a44578082015181840152602081019050610a29565b83811115610a53576000848401525b50505050565b60006002820490506001821680610a7157607f821691505b60208210811415610a8557610a84610b03565b5b50919050565b6000610a9682610a0d565b91507fffffffffffffffffffffffffffffffffffffffffffffffffffffffffffffffff821415610ac957610ac8610ad4565b5b600182019050919050565b7f4e487b7100000000000000000000000000000000000000000000000000000000600052601160045260246000fd5b7f4e487b7100000000000000000000000000000000000000000000000000000000600052602260045260246000fd5b7f4e487b7100000000000000000000000000000000000000000000000000000000600052604160045260246000fd5b6000601f19601f8301169050919050565b610b7b81610a0d565b8114610b8657600080fd5b5056fea2646970667358221220283d08289ea5dda3b4d11eb35c511526c234e4b1899eaa48e1ed3287ecf1ffd564736f6c63430008000033",
  "immutableReferences": {},
  "source": "// SPDX-License-Identifier: MIT\r\npragma solidity ^0.8.0;\r\n\r\ncontract EcommercePlatform {\r\n    struct TransactionProposal {\r\n        uint256 productId;\r\n        string merchantWallet;\r\n        uint256 price;\r\n        uint256 timestamp;\r\n        bool merchantSigned;\r\n        string merchantSignature;\r\n        bool platformSigned;\r\n        string platformSignature;\r\n        bool deliveryConfirmed;\r\n        bool processCompleted;\r\n    }\r\n\r\n    mapping(uint256 => TransactionProposal) public proposals;\r\n    uint256 public proposalCounter;\r\n\r\n    // Step 1: User uploads transaction proposal\r\n    function uploadTransactionProposal(uint256 _productId, string memory _merchantWallet, uint256 _price) public {\r\n        proposals[proposalCounter] = TransactionProposal({\r\n            productId: _productId,\r\n            merchantWallet: _merchantWallet,\r\n            price: _price,\r\n            timestamp: block.timestamp,\r\n            merchantSigned: false,\r\n            merchantSignature: \"\",\r\n            platformSigned: false,\r\n            platformSignature: \"\",\r\n            deliveryConfirmed: false,\r\n            processCompleted: false\r\n        });\r\n        proposalCounter++;\r\n    }\r\n\r\n    // Step 2: Merchant signs the proposal\r\n    function signProposalByMerchant(uint256 _proposalId, string memory _signature) public {\r\n        proposals[_proposalId].merchantSigned = true;\r\n        proposals[_proposalId].merchantSignature = _signature;\r\n    }\r\n\r\n    // Step 2: Platform signs the proposal\r\n    function signProposalByPlatform(uint256 _proposalId, string memory _signature) public {\r\n        proposals[_proposalId].platformSigned = true;\r\n        proposals[_proposalId].platformSignature = _signature;\r\n    }\r\n\r\n    // Step 3: Delivery company uploads delivery information\r\n    function confirmDelivery(uint256 _proposalId) public {\r\n        proposals[_proposalId].deliveryConfirmed = true;\r\n    }\r\n\r\n    // Step 4: Record process completion information\r\n    function completeProcess(uint256 _proposalId) public {\r\n        proposals[_proposalId].processCompleted = true;\r\n    }\r\n}\r\n",
  "sourcePath": "C:\\Users\\Yezzi\\Desktop\\cbdc\\ecommerce-platform\\contracts\\EcommercePlatform.sol",
  "compiler": {
    "name": "solc",
    "version": "0.8.0+commit.c7dfd78e.Emscripten.clang"
  },
  "schemaVersion": "3.4.16",
  "updatedAt": "2024-06-17T03:42:16.190Z",
  "networkType": "ethereum",
  "devdoc": {
    "kind": "dev",
    "methods": {},
    "version": 1
  },
  "userdoc": {
    "kind": "user",
    "methods": {},
    "version": 1
  }
}